S00B00006D61696E2E73313944
S1132000CC202CBD201DBD2019C658F7202DCC2076
S11320102CBD201DBD20193F39BDFFC4393C8F3C68
S10F20200736BDFFCA3206388F3839A7D6
S113202C48656C6C6F20576F726C64200400000060
S113203C0000000000000000000000000000000090
S113204C0000000000000000000000000000000080
S113205C0000000000000000000000000000000070
S113206C0000000000000000000000000000000060
S113207C0000000000000000000000000000000050
S107208C000000004C
S9032000DC
